{
  "_format": "hh-sol-artifact-1",
  "contractName": "SimplePoll",
  "sourceName": "contracts/SimplePoll.sol",
  "abi": [
    {
      "inputs": [],
      "stateMutability": "nonpayable",
      "type": "constructor"
    },
    {
      "anonymous": false,
      "inputs": [
        {
          "indexed": true,
          "internalType": "uint256",
          "name": "pollId",
          "type": "uint256"
        },
        {
          "indexed": true,
          "internalType": "address",
          "name": "creator",
          "type": "address"
        },
        {
          "indexed": false,
          "internalType": "uint256",
          "name": "amount",
          "type": "uint256"
        },
        {
          "indexed": false,
          "internalType": "uint256",
          "name": "newTotal",
          "type": "uint256"
        }
      ],
      "name": "CreatorDepositAdded",
      "type": "event"
    },
    {
      "anonymous": false,
      "inputs": [
        {
          "indexed": true,
          "internalType": "uint256",
          "name": "pollId",
          "type": "uint256"
        },
        {
          "indexed": true,
          "internalType": "address",
          "name": "creator",
          "type": "address"
        },
        {
          "indexed": false,
          "internalType": "string",
          "name": "title",
          "type": "string"
        },
        {
          "indexed": false,
          "internalType": "string[]",
          "name": "options",
          "type": "string[]"
        },
        {
          "indexed": false,
          "internalType": "uint256",
          "name": "endTime",
          "type": "uint256"
        },
        {
          "indexed": false,
          "internalType": "uint256",
          "name": "creatorDeposit",
          "type": "uint256"
        }
      ],
      "name": "PollCreated",
      "type": "event"
    },
    {
      "anonymous": false,
      "inputs": [
        {
          "indexed": true,
          "internalType": "uint256",
          "name": "pollId",
          "type": "uint256"
        },
        {
          "indexed": false,
          "internalType": "uint256",
          "name": "winningOption",
          "type": "uint256"
        },
        {
          "indexed": false,
          "internalType": "uint256",
          "name": "totalWinners",
          "type": "uint256"
        },
        {
          "indexed": false,
          "internalType": "uint256",
          "name": "rewardPerWinner",
          "type": "uint256"
        },
        {
          "indexed": false,
          "internalType": "uint256",
          "name": "totalRewardPool",
          "type": "uint256"
        }
      ],
      "name": "PollSettled",
      "type": "event"
    },
    {
      "anonymous": false,
      "inputs": [
        {
          "indexed": true,
          "internalType": "uint256",
          "name": "pollId",
          "type": "uint256"
        },
        {
          "indexed": true,
          "internalType": "address",
          "name": "voter",
          "type": "address"
        },
        {
          "indexed": false,
          "internalType": "uint256",
          "name": "optionId",
          "type": "uint256"
        },
        {
          "indexed": false,
          "internalType": "uint256",
          "name": "amount",
          "type": "uint256"
        }
      ],
      "name": "VoteCast",
      "type": "event"
    },
    {
      "inputs": [],
      "name": "CREATOR_REFILL_PCT",
      "outputs": [
        {
          "internalType": "uint256",
          "name": "",
          "type": "uint256"
        }
      ],
      "stateMutability": "view",
      "type": "function"
    },
    {
      "inputs": [],
      "name": "DONATION_PCT",
      "outputs": [
        {
          "internalType": "uint256",
          "name": "",
          "type": "uint256"
        }
      ],
      "stateMutability": "view",
      "type": "function"
    },
    {
      "inputs": [],
      "name": "MIN_CREATOR_DEPOSIT",
      "outputs": [
        {
          "internalType": "uint256",
          "name": "",
          "type": "uint256"
        }
      ],
      "stateMutability": "view",
      "type": "function"
    },
    {
      "inputs": [],
      "name": "MIN_CREDIBILITY",
      "outputs": [
        {
          "internalType": "uint256",
          "name": "",
          "type": "uint256"
        }
      ],
      "stateMutability": "view",
      "type": "function"
    },
    {
      "inputs": [],
      "name": "PLATFORM_FEE_PCT",
      "outputs": [
        {
          "internalType": "uint256",
          "name": "",
          "type": "uint256"
        }
      ],
      "stateMutability": "view",
      "type": "function"
    },
    {
      "inputs": [],
      "name": "RANDOM_WINNERS_PCT",
      "outputs": [
        {
          "internalType": "uint256",
          "name": "",
          "type": "uint256"
        }
      ],
      "stateMutability": "view",
      "type": "function"
    },
    {
      "inputs": [],
      "name": "VOTER_BET_MARKUP",
      "outputs": [
        {
          "internalType": "uint256",
          "name": "",
          "type": "uint256"
        }
      ],
      "stateMutability": "view",
      "type": "function"
    },
    {
      "inputs": [
        {
          "internalType": "uint256",
          "name": "_pollId",
          "type": "uint256"
        }
      ],
      "name": "addCreatorDeposit",
      "outputs": [],
      "stateMutability": "payable",
      "type": "function"
    },
    {
      "inputs": [
        {
          "internalType": "uint256",
          "name": "_pollId",
          "type": "uint256"
        }
      ],
      "name": "autoSettlePoll",
      "outputs": [],
      "stateMutability": "nonpayable",
      "type": "function"
    },
    {
      "inputs": [
        {
          "internalType": "uint256",
          "name": "_pollId",
          "type": "uint256"
        }
      ],
      "name": "calculateRewards",
      "outputs": [
        {
          "internalType": "uint256",
          "name": "platformFee",
          "type": "uint256"
        },
        {
          "internalType": "uint256",
          "name": "creatorRefill",
          "type": "uint256"
        },
        {
          "internalType": "uint256",
          "name": "randomWinnersPool",
          "type": "uint256"
        },
        {
          "internalType": "uint256",
          "name": "donationAmount",
          "type": "uint256"
        },
        {
          "internalType": "bool",
          "name": "isEligibleForRefill",
          "type": "bool"
        }
      ],
      "stateMutability": "view",
      "type": "function"
    },
    {
      "inputs": [
        {
          "internalType": "uint256",
          "name": "_basePrice",
          "type": "uint256"
        },
        {
          "internalType": "uint256",
          "name": "_currentVotes",
          "type": "uint256"
        },
        {
          "internalType": "uint256",
          "name": "_maxVotes",
          "type": "uint256"
        }
      ],
      "name": "calculateVotePrice",
      "outputs": [
        {
          "internalType": "uint256",
          "name": "",
          "type": "uint256"
        }
      ],
      "stateMutability": "pure",
      "type": "function"
    },
    {
      "inputs": [
        {
          "internalType": "string",
          "name": "_title",
          "type": "string"
        },
        {
          "internalType": "string",
          "name": "_description",
          "type": "string"
        },
        {
          "internalType": "string[]",
          "name": "_options",
          "type": "string[]"
        },
        {
          "internalType": "uint256",
          "name": "_durationInSeconds",
          "type": "uint256"
        },
        {
          "internalType": "uint256",
          "name": "_requiredCredibility",
          "type": "uint256"
        },
        {
          "internalType": "uint256",
          "name": "_pollPrice",
          "type": "uint256"
        },
        {
          "internalType": "uint256",
          "name": "_maxVotes",
          "type": "uint256"
        }
      ],
      "name": "createPoll",
      "outputs": [
        {
          "internalType": "uint256",
          "name": "",
          "type": "uint256"
        }
      ],
      "stateMutability": "payable",
      "type": "function"
    },
    {
      "inputs": [
        {
          "internalType": "address",
          "name": "_user",
          "type": "address"
        },
        {
          "internalType": "uint256",
          "name": "_amount",
          "type": "uint256"
        }
      ],
      "name": "decreaseCredibility",
      "outputs": [],
      "stateMutability": "nonpayable",
      "type": "function"
    },
    {
      "inputs": [
        {
          "internalType": "uint256",
          "name": "_pollId",
          "type": "uint256"
        },
        {
          "internalType": "uint256",
          "name": "_winningOption",
          "type": "uint256"
        }
      ],
      "name": "emergencySettle",
      "outputs": [],
      "stateMutability": "nonpayable",
      "type": "function"
    },
    {
      "inputs": [
        {
          "internalType": "uint256",
          "name": "_pollId",
          "type": "uint256"
        }
      ],
      "name": "getPoll",
      "outputs": [
        {
          "components": [
            {
              "internalType": "uint256",
              "name": "id",
              "type": "uint256"
            },
            {
              "internalType": "string",
              "name": "title",
              "type": "string"
            },
            {
              "internalType": "string",
              "name": "description",
              "type": "string"
            },
            {
              "internalType": "address",
              "name": "creator",
              "type": "address"
            },
            {
              "internalType": "string[]",
              "name": "options",
              "type": "string[]"
            },
            {
              "internalType": "uint256",
              "name": "endTime",
              "type": "uint256"
            },
            {
              "internalType": "bool",
              "name": "settled",
              "type": "bool"
            },
            {
              "internalType": "uint256",
              "name": "winningOption",
              "type": "uint256"
            },
            {
              "internalType": "uint256",
              "name": "totalPool",
              "type": "uint256"
            },
            {
              "internalType": "uint256",
              "name": "creatorDeposit",
              "type": "uint256"
            },
            {
              "internalType": "uint256",
              "name": "voterPool",
              "type": "uint256"
            },
            {
              "internalType": "bool",
              "name": "exists",
              "type": "bool"
            },
            {
              "internalType": "uint256",
              "name": "requiredCredibility",
              "type": "uint256"
            },
            {
              "internalType": "uint256",
              "name": "pollPrice",
              "type": "uint256"
            },
            {
              "internalType": "uint256",
              "name": "maxVotes",
              "type": "uint256"
            },
            {
              "internalType": "uint256",
              "name": "entryFee",
              "type": "uint256"
            },
            {
              "internalType": "uint256",
              "name": "currentVotes",
              "type": "uint256"
            },
            {
              "internalType": "uint256",
              "name": "voterBetAmount",
              "type": "uint256"
            },
            {
              "internalType": "bool",
              "name": "creatorRefillClaimed",
              "type": "bool"
            }
          ],
          "internalType": "struct SimplePoll.Poll",
          "name": "",
          "type": "tuple"
        }
      ],
      "stateMutability": "view",
      "type": "function"
    },
    {
      "inputs": [
        {
          "internalType": "uint256",
          "name": "_pollId",
          "type": "uint256"
        }
      ],
      "name": "getPollRewardBreakdown",
      "outputs": [
        {
          "internalType": "uint256",
          "name": "totalPool",
          "type": "uint256"
        },
        {
          "internalType": "uint256",
          "name": "creatorDeposit",
          "type": "uint256"
        },
        {
          "internalType": "uint256",
          "name": "voterPool",
          "type": "uint256"
        },
        {
          "internalType": "uint256",
          "name": "projectedRandomWinnersPool",
          "type": "uint256"
        },
        {
          "internalType": "uint256",
          "name": "projectedPlatformFee",
          "type": "uint256"
        },
        {
          "internalType": "uint256",
          "name": "projectedCreatorRefill",
          "type": "uint256"
        }
      ],
      "stateMutability": "view",
      "type": "function"
    },
    {
      "inputs": [
        {
          "internalType": "uint256",
          "name": "_pollId",
          "type": "uint256"
        }
      ],
      "name": "getPollStats",
      "outputs": [
        {
          "internalType": "uint256",
          "name": "currentVotes",
          "type": "uint256"
        },
        {
          "internalType": "uint256",
          "name": "maxVotes",
          "type": "uint256"
        },
        {
          "internalType": "uint256",
          "name": "voterBetAmount",
          "type": "uint256"
        },
        {
          "internalType": "uint256",
          "name": "requiredCredibility",
          "type": "uint256"
        },
        {
          "internalType": "bool",
          "name": "isEligibleForRefill",
          "type": "bool"
        }
      ],
      "stateMutability": "view",
      "type": "function"
    },
    {
      "inputs": [
        {
          "internalType": "uint256",
          "name": "_pollId",
          "type": "uint256"
        }
      ],
      "name": "getTotalVoters",
      "outputs": [
        {
          "internalType": "uint256",
          "name": "",
          "type": "uint256"
        }
      ],
      "stateMutability": "view",
      "type": "function"
    },
    {
      "inputs": [
        {
          "internalType": "address",
          "name": "_user",
          "type": "address"
        }
      ],
      "name": "getUserCredibility",
      "outputs": [
        {
          "internalType": "uint256",
          "name": "",
          "type": "uint256"
        }
      ],
      "stateMutability": "view",
      "type": "function"
    },
    {
      "inputs": [
        {
          "internalType": "uint256",
          "name": "_pollId",
          "type": "uint256"
        },
        {
          "internalType": "uint256",
          "name": "_optionId",
          "type": "uint256"
        }
      ],
      "name": "getVoterCount",
      "outputs": [
        {
          "internalType": "uint256",
          "name": "",
          "type": "uint256"
        }
      ],
      "stateMutability": "view",
      "type": "function"
    },
    {
      "inputs": [
        {
          "internalType": "uint256",
          "name": "_pollId",
          "type": "uint256"
        },
        {
          "internalType": "uint256",
          "name": "_optionId",
          "type": "uint256"
        }
      ],
      "name": "getVotersForOption",
      "outputs": [
        {
          "internalType": "address[]",
          "name": "",
          "type": "address[]"
        }
      ],
      "stateMutability": "view",
      "type": "function"
    },
    {
      "inputs": [
        {
          "internalType": "uint256",
          "name": "",
          "type": "uint256"
        },
        {
          "internalType": "address",
          "name": "",
          "type": "address"
        }
      ],
      "name": "hasVoted",
      "outputs": [
        {
          "internalType": "bool",
          "name": "",
          "type": "bool"
        }
      ],
      "stateMutability": "view",
      "type": "function"
    },
    {
      "inputs": [
        {
          "internalType": "address",
          "name": "_user",
          "type": "address"
        },
        {
          "internalType": "uint256",
          "name": "_amount",
          "type": "uint256"
        }
      ],
      "name": "increaseCredibility",
      "outputs": [],
      "stateMutability": "nonpayable",
      "type": "function"
    },
    {
      "inputs": [],
      "name": "nextPollId",
      "outputs": [
        {
          "internalType": "uint256",
          "name": "",
          "type": "uint256"
        }
      ],
      "stateMutability": "view",
      "type": "function"
    },
    {
      "inputs": [],
      "name": "platform",
      "outputs": [
        {
          "internalType": "address",
          "name": "",
          "type": "address"
        }
      ],
      "stateMutability": "view",
      "type": "function"
    },
    {
      "inputs": [
        {
          "internalType": "uint256",
          "name": "",
          "type": "uint256"
        },
        {
          "internalType": "uint256",
          "name": "",
          "type": "uint256"
        },
        {
          "internalType": "uint256",
          "name": "",
          "type": "uint256"
        }
      ],
      "name": "pollVoters",
      "outputs": [
        {
          "internalType": "address",
          "name": "",
          "type": "address"
        }
      ],
      "stateMutability": "view",
      "type": "function"
    },
    {
      "inputs": [
        {
          "internalType": "uint256",
          "name": "",
          "type": "uint256"
        }
      ],
      "name": "polls",
      "outputs": [
        {
          "internalType": "uint256",
          "name": "id",
          "type": "uint256"
        },
        {
          "internalType": "string",
          "name": "title",
          "type": "string"
        },
        {
          "internalType": "string",
          "name": "description",
          "type": "string"
        },
        {
          "internalType": "address",
          "name": "creator",
          "type": "address"
        },
        {
          "internalType": "uint256",
          "name": "endTime",
          "type": "uint256"
        },
        {
          "internalType": "bool",
          "name": "settled",
          "type": "bool"
        },
        {
          "internalType": "uint256",
          "name": "winningOption",
          "type": "uint256"
        },
        {
          "internalType": "uint256",
          "name": "totalPool",
          "type": "uint256"
        },
        {
          "internalType": "uint256",
          "name": "creatorDeposit",
          "type": "uint256"
        },
        {
          "internalType": "uint256",
          "name": "voterPool",
          "type": "uint256"
        },
        {
          "internalType": "bool",
          "name": "exists",
          "type": "bool"
        },
        {
          "internalType": "uint256",
          "name": "requiredCredibility",
          "type": "uint256"
        },
        {
          "internalType": "uint256",
          "name": "pollPrice",
          "type": "uint256"
        },
        {
          "internalType": "uint256",
          "name": "maxVotes",
          "type": "uint256"
        },
        {
          "internalType": "uint256",
          "name": "entryFee",
          "type": "uint256"
        },
        {
          "internalType": "uint256",
          "name": "currentVotes",
          "type": "uint256"
        },
        {
          "internalType": "uint256",
          "name": "voterBetAmount",
          "type": "uint256"
        },
        {
          "internalType": "bool",
          "name": "creatorRefillClaimed",
          "type": "bool"
        }
      ],
      "stateMutability": "view",
      "type": "function"
    },
    {
      "inputs": [
        {
          "internalType": "address",
          "name": "_user",
          "type": "address"
        },
        {
          "internalType": "uint256",
          "name": "_credibility",
          "type": "uint256"
        }
      ],
      "name": "setUserCredibility",
      "outputs": [],
      "stateMutability": "nonpayable",
      "type": "function"
    },
    {
      "inputs": [
        {
          "internalType": "uint256",
          "name": "_pollId",
          "type": "uint256"
        },
        {
          "internalType": "uint256",
          "name": "_winningOption",
          "type": "uint256"
        }
      ],
      "name": "settlePoll",
      "outputs": [],
      "stateMutability": "nonpayable",
      "type": "function"
    },
    {
      "inputs": [
        {
          "internalType": "address",
          "name": "",
          "type": "address"
        }
      ],
      "name": "userCredibility",
      "outputs": [
        {
          "internalType": "uint256",
          "name": "",
          "type": "uint256"
        }
      ],
      "stateMutability": "view",
      "type": "function"
    },
    {
      "inputs": [
        {
          "internalType": "uint256",
          "name": "",
          "type": "uint256"
        },
        {
          "internalType": "address",
          "name": "",
          "type": "address"
        }
      ],
      "name": "userVotes",
      "outputs": [
        {
          "internalType": "uint256",
          "name": "",
          "type": "uint256"
        }
      ],
      "stateMutability": "view",
      "type": "function"
    },
    {
      "inputs": [
        {
          "internalType": "uint256",
          "name": "_pollId",
          "type": "uint256"
        },
        {
          "internalType": "uint256",
          "name": "_optionId",
          "type": "uint256"
        }
      ],
      "name": "vote",
      "outputs": [],
      "stateMutability": "payable",
      "type": "function"
    }
  ],
  "bytecode": "0x60a080604052346100595760016005553360805261307d908161005f82396080518181816105f201528181610ef301528181610f7b015281816110ae015281816113f8015281816114420152818161236201526126090152f35b600080fdfe61012080604052600436101561001457600080fd5b60003560e01c9081630fc4d1ca14612a68575080631a8cbcaa1461270557806321a1759e1461242c578063233414461461104357806326a2b0f3146123435780632b7865711461232557806331831c9c1461215757806339095ea414611f66578063427530c214611f335780634385963214611ee657806343d3a4c114611e5d578063461aa9fc146101cd57806347b22ae4146114dd57806347c044b5146114275780634bde38c8146113e25780634c660784146113c6578063597798cd1461109e57806359f0034d1461107d5780635bdf5621146110435780635e23bbec14610cfd5780636ee0675a14610b8f578063804148a314610b7357806389ce7e1014610b57578063a85fd2c014610b35578063ac2f0074146109b9578063b384abef1461069a578063b4fd4e21146105d7578063bae6f93a14610512578063c3b62159146104bc578063d3ea4350146101d2578063f8a97d99146101cd5763fe5b3e3b1461018057600080fd5b346101c85760403660031901126101c857610199612aef565b600435600052600460205260406000209060018060a01b03166000526020526020604060002054604051908152f35b600080fd5b612b05565b346101c85760203660031901126101c8576000600435600052600160205260406000209060405161020281612b21565b8254815261021260018401612c2f565b602082015261022360028401612c2f565b604082015260038301546001600160a01b0316606082015260048301805461024a81612bc3565b916102586040519384612b3e565b818352602083019060005260206000206000915b83831061049f57505050506080820152600583015460a082015260ff600684015416151560c0820152600783015460e082015260088301546101008201526009830154926101208201938452600a81015461014083015261033360ff600b83015416151580610160850152600c830154610180850152600d8301546101a0850152600e830154936101c08101948552600f8401546101e082015261024060ff6012601087015496610200850197885260118101546102208601520154161515910152612d01565b60055460001981019490851161041e576103508351835190612e3f565b60009580151580610495575b610444575b505050519051605a810290808204605a149015171561041e5760649004111561043c575b6019820282159083810460191482171561041e576064900491801561043457600a8402848104600a1483171561041e5760649004935b6032810292818404603214171561041e576103ec84916103e7876103e7606461041a9804958694612e3f565b612e3f565b906040519586958693909594919260809360a086019786526020860152604085015260608401521515910152565b0390f35b634e487b7160e01b600052601160045260246000fd5b6000936103bb565b506001610385565b9091929582606e0292606e8404036104815750610478929161046a610470928651612e0c565b90612e1f565b905190612e0c565b92848080610361565b634e487b7160e01b81526011600452602490fd5b508451151561035c565b6001602081926104ae85612c2f565b81520192019201919061026c565b346101c8576104ca36612bdb565b916000526002602052604060002090600052602052604060002080548210156101c8576020916104f991612cd3565b905460405160039290921b1c6001600160a01b03168152f35b346101c85761052036612ac3565b90600052600260205260406000209060005260205260406000206040518060208354918281520190819360005260206000209060005b8181106105b8575050508161056c910382612b3e565b6040519182916020830190602084525180915260408301919060005b818110610596575050500390f35b82516001600160a01b0316845285945060209384019390920191600101610588565b82546001600160a01b0316845260209093019260019283019201610556565b346101c85760403660031901126101c8576105f0612ad9565b7f00000000000000000000000000000000000000000000000000000000000000006001600160a01b031633036106465760018060a01b0316600052600060205260406000206106426024358254612fc0565b9055005b60405162461bcd60e51b815260206004820152602660248201527f4f6e6c7920706c6174666f726d2063616e20696e63726561736520637265646960448201526562696c69747960d01b6064820152608490fd5b6106a336612ac3565b9080600052600160205260406000206106c260ff600b83015416612d01565b600581015442101561098357600082815260036020908152604080832033845290915290205460ff1661094e5760048101548310156109185760108101908154600e820154808210156108d357336000526000602052604060002054600c8401541061088e5761073691600d840154612ff3565b340361083d57600083815260036020908152604080832033808552908352818420805460ff1916600117905586845260048352818420908452825280832087905585835260028252808320878452909152902080549290600160401b84101561082757836107ab916001600a96018155612cd3565b81546001600160a01b0360039290921b91821b19163390911b17905580546107d290612fcd565b9055600881016107e3348254612fc0565b9055016107f1348254612fc0565b90556040519182523460208301527f0271f53eebbe20450d9578f28ec279231556c34545b30e2278d754ffd39cd63c60403393a3005b634e487b7160e01b600052604160045260246000fd5b60405162461bcd60e51b815260206004820152602360248201527f4d7573742073656e642065786163742064796e616d696320766f746520616d6f6044820152621d5b9d60ea1b6064820152608490fd5b60405162461bcd60e51b815260206004820152601860248201527f496e73756666696369656e7420637265646962696c69747900000000000000006044820152606490fd5b60405162461bcd60e51b815260206004820152601760248201527f506f6c6c20766f7465206c696d697420726561636865640000000000000000006044820152606490fd5b60405162461bcd60e51b815260206004820152600e60248201526d24b73b30b634b21037b83a34b7b760911b6044820152606490fd5b60405162461bcd60e51b815260206004820152600d60248201526c105b1c9958591e481d9bdd1959609a1b6044820152606490fd5b60405162461bcd60e51b815260206004820152600e60248201526d141bdb1b081a185cc8195b99195960921b6044820152606490fd5b346101c85760203660031901126101c85760043560005260016020526040600020805490600181016109ea90612c2f565b60e0526109f960028201612c2f565b61010052600160a01b6001900360038201541660a052600581015491600682015460ff16600783015460088401546009850154600a860154600b87015460ff1690600c88015492600d89015494600e8a015496600f8b01549860108c01549a60118d01549c6012015460ff1660805260405160c05260c0515260c051602001610240905260c0516102400160e05190610a9191612a82565b60c051810360c051604001526101005190610aab91612a82565b9c60a05160c0516060015260c05160800152151560c05160a0015260c05160c0015260c05160e0015260c051610100015260c0516101200152151560c051610140015260c051610160015260c051610180015260c0516101a0015260c0516101c0015260c0516101e0015260c0516102000152608051151560c051610220015260c051900360c051f35b346101c85760003660031901126101c857602060405166071afd498d00008152f35b346101c85760003660031901126101c8576020604051600f8152f35b346101c85760003660031901126101c857602060405160198152f35b60203660031901126101c857600435806000526001602052610bbb60ff600b6040600020015416612d01565b6000818152600160205260409020600301546001600160a01b03163303610cb857806000526001602052610bfa60ff6006604060002001541615612d84565b3415610c83578060005260016020526009604060002001610c1c348254612fc0565b90558060005260016020526008604060002001610c3a348254612fc0565b9055806000526001602052600960406000200154906040519134835260208301527f0e7b239a92071c8c6f18b80fd053bca268bc99217d7a25c28cfed0b2ffed770560403393a3005b60405162461bcd60e51b815260206004820152600d60248201526c26bab9ba1039b2b7321021272160991b6044820152606490fd5b60405162461bcd60e51b815260206004820152601c60248201527f4f6e6c792063726561746f722063616e20616464206465706f736974000000006044820152606490fd5b346101c85760203660031901126101c857600435806000526001602052604060002090610d3060ff600b84015416612d01565b610d406005830154421015612d43565b60068201805490610d5460ff831615612d84565b60048401546000929083805b82811061100a5750505060019060ff19161790558060078401558160005260026020526040600020816000526020526040600020906040518083602082955493848152019060005260206000209260005b818110610fe8575050610dc692500383612b3e565b8151918215610f2957600885015490601982029582159683810460191488171561041e576064900492600a8102818104600a1489171561041e57606490049760328202918204603214171561041e576064900496610e248689612e1f565b9380610ee1575b5080610eb3575b505060005b848110610e7d5750506000805160206130288339815191529394610e7891604051948594859094939260609260808301968352602083015260408201520152565b0390a2005b600190610ead6000808080886001600160a01b03610e9b888b612f60565b51165af1610ea7612e4c565b50612f74565b01610e37565b600080808093610eda95600360018060a01b03910154165af1610ed4612e4c565b50612f14565b8680610e32565b6000808080610f239460018060a01b037f0000000000000000000000000000000000000000000000000000000000000000165af1610f1d612e4c565b50612e7c565b88610e2b565b509050600883929301549060148202928284046014148315171561041e576000808080608096610fca95610fad83808080610f786000805160206130288339815191529f606490048098612e3f565b967f00000000000000000000000000000000000000000000000000000000000000006001600160a01b03165af1610f1d612e4c565b600301546001600160a01b03165af1610fc4612e4c565b50612ec8565b604051908152600060208201526000604082015260006060820152a2005b84546001600160a01b0316835260019485019487945060209093019201610db1565b866000526002602052604060002081600052602052604060002054828111611036575b50600101610d60565b915094506001859061102d565b346101c85760203660031901126101c8576001600160a01b03611064612ad9565b1660005260006020526020604060002054604051908152f35b346101c857602061109661109036612bdb565b91612ff3565b604051908152f35b346101c8576110ac36612ac3565b7f00000000000000000000000000000000000000000000000000000000000000006001600160a01b0316919033839003611376578160005260016020526040600020906110ff60ff600b84015416612d01565b600582015462015180810180911161041e57421061133157600682016001815461112c60ff821615612d84565b61113b60048601548510612dc7565b60ff19161790558060078301558260005260026020526040600020816000526020526040600020916040518084602082965493848152019060005260206000209260005b81811061130f57505061119492500384612b3e565b82519283156112ad576008820154916019830283159084810460191482171561041e576064900493600a8102818104600a1483171561041e57606490049160328202918204603214171561041e5760649004976111f1878a612e1f565b9480611292575b50508061126a575b505060005b8481106112465750506000805160206130288339815191529394610e7891604051948594859094939260609260808301968352602083015260408201520152565b6001906112646000808080886001600160a01b03610e9b888b612f60565b01611205565b60008080809361128b95600360018060a01b03910154165af1610ed4612e4c565b8680611200565b6000808080936112a6955af1610f1d612e4c565b88806111f8565b506008015492936014808502949350838504148315171561041e576000808080608096610fca95611305838080806112f96000805160206130288339815191529f606490048098612e3f565b96865af1610f1d612e4c565b5af1610fc4612e4c565b84546001600160a01b031683526001948501948894506020909301920161117f565b60405162461bcd60e51b815260206004820152601c60248201527f4d75737420776169742032346820616674657220706f6c6c20656e64000000006044820152606490fd5b60405162461bcd60e51b815260206004820152602260248201527f4f6e6c7920706c6174666f726d2063616e20656d657267656e637920736574746044820152616c6560f01b6064820152608490fd5b346101c85760003660031901126101c8576020604051606e8152f35b346101c85760003660031901126101c8576040517f00000000000000000000000000000000000000000000000000000000000000006001600160a01b03168152602090f35b346101c85760403660031901126101c857611440612ad9565b7f00000000000000000000000000000000000000000000000000000000000000006001600160a01b0316330361148e576001600160a01b031660009081526020819052604090206024359055005b60405162461bcd60e51b815260206004820152602160248201527f4f6e6c7920706c6174666f726d2063616e2073657420637265646962696c69746044820152607960f81b6064820152608490fd5b60e03660031901126101c85760043567ffffffffffffffff81116101c857611509903690600401612b7c565b60243567ffffffffffffffff81116101c857611529903690600401612b7c565b6044359067ffffffffffffffff82116101c857366023830112156101c85781600401359061155682612bc3565b926115646040519485612b3e565b82845260208401906024829460051b820101903682116101c85760248101925b828410611e2d5750505050606435926084359160a4359260c435835160028110159081611e21575b5015611de557601e87101580611dd8575b15611d6d5766071afd498d00003410611d2857600a8210611ce3578415611c94578015611c50576115fd600554976115f489612fcd565b60055542612fc0565b946116088282612e1f565b926040519461161686612b21565b8986528a602087015260408601523360608601528560808601528660a0860152600060c0860152600060e08601523461010086015234610120860152600061014086015260016101608601526101808501526101a08401526101c08301526101e082015260006102008201526000610220820152600061024082015284600052600160205260406000209080518255602081015180519067ffffffffffffffff8211610827576116c96001850154612bf5565b601f8111611c1b575b50602090601f8311600114611baa57611704929160009183611af9575b50508160011b916000199060031b1c19161790565b60018301555b604081015180519067ffffffffffffffff82116108275761172e6002850154612bf5565b601f8111611b75575b50602090601f8311600114611b0457611768929160009183611af95750508160011b916000199060031b1c19161790565b60028301555b6003820160018060a01b036060830151166bffffffffffffffffffffffff60a01b825416179055600482016080820151805190600160401b8211610827578254828455808310611a7b575b50602001916000526020600020916000905b82821061195757505050509060126102408360a06118ad950151600585015561180960c08201511515600686019060ff801983541691151516179055565b60e0810151600785015561010081015160088501556101208101516009850155610140810151600a8501556118546101608201511515600b86019060ff801983541691151516179055565b610180810151600c8501556101a0810151600d8501556101c0810151600e8501556101e0810151600f850155610200810151601085015561022081015160118501550151151591019060ff801983541691151516179055565b6118c260405195608087526080870190612a82565b90858203602087015251808252602082019160208260051b82010194926000915b83831061192a57604089018690523460608a015260208833817ff430a5d69e2a8bf7e182935f788c8eebcba079a3de38be32477b82ca394eb7308d8c038ea3604051908152f35b9091929395602080611948600193601f198682030187528a51612a82565b980193019301919392906118e3565b805180519067ffffffffffffffff8211610827576119758654612bf5565b601f8111611a3e575b50602090601f83116001146119d157926119b7836001959460209487966000926119c65750508160011b916000199060031b1c19161790565b87555b019401910190926117cb565b0151905038806116ef565b90601f1983169187600052816000209260005b818110611a265750936020936001969387969383889510611a0d575b505050811b0187556119ba565b015160001960f88460031b161c19169055388080611a00565b929360206001819287860151815501950193016119e4565b611a6b90876000526020600020601f850160051c81019160208610611a71575b601f0160051c0190612fdc565b8d61197e565b9091508190611a5e565b8360005282602060002091820191015b818110611a9857506117b9565b80611aa560019254612bf5565b80611ab2575b5001611a8b565b601f81118314611ac85750600081555b8d611aab565b611ae6908260005283601f6020600020920160051c82019101612fdc565b8060005260006020812081835555611ac2565b015190508a806116ef565b91906002850160005280600020906000935b601f1984168510611b5a576001945083601f19811610611b41575b505050811b01600283015561176e565b015160001960f88460031b161c19169055898080611b31565b81810151835560209485019460019093019290910190611b16565b611ba490600286016000526020600020601f850160051c81019160208610611a7157601f0160051c0190612fdc565b89611737565b91906001850160005280600020906000935b601f1984168510611c00576001945083601f19811610611be7575b505050811b01600183015561170a565b015160001960f88460031b161c19169055898080611bd7565b81810151835560209485019460019093019290910190611bbc565b611c4a90600186016000526020600020601f850160051c81019160208610611a7157601f0160051c0190612fdc565b896116d2565b606460405162461bcd60e51b815260206004820152602060248201527f4d617820766f746573206d7573742062652067726561746572207468616e20306044820152fd5b60405162461bcd60e51b815260206004820152602160248201527f506f6c6c207072696365206d7573742062652067726561746572207468616e206044820152600360fc1b6064820152608490fd5b60405162461bcd60e51b815260206004820152601c60248201527f526571756972656420637265646962696c69747920746f6f206c6f77000000006044820152606490fd5b60405162461bcd60e51b815260206004820152601760248201527f43726561746f72206465706f73697420746f6f206c6f770000000000000000006044820152606490fd5b60405162461bcd60e51b815260206004820152603860248201527f4475726174696f6e206d757374206265203330207365636f6e647320746f203360448201527f302064617973202832353932303030207365636f6e64732900000000000000006064820152608490fd5b5062278d008711156115bd565b60405162461bcd60e51b81526020600482015260146024820152730c8b4d481bdc1d1a5bdb9cc81c995c5d5a5c995960621b6044820152606490fd5b600591501115896115ac565b833567ffffffffffffffff81116101c857602091611e52839260243691870101612b7c565b815201930192611584565b346101c85760203660031901126101c857600435806000526001602052611e8e60ff600b6040600020015416612d01565b600090815b816000526001602052600460406000200154831015611edb57611ed360019183600052600260205260406000208560005260205260406000205490612fc0565b920191611e93565b602090604051908152f35b346101c85760403660031901126101c857611eff612aef565b600435600052600360205260406000209060018060a01b0316600052602052602060ff604060002054166040519015158152f35b346101c857611f4136612ac3565b9060005260026020526040600020906000526020526020604060002054604051908152f35b346101c85760203660031901126101c8576004356000526001602052604060002060405190611f9482612b21565b80548252611fa460018201612c2f565b6020830152611fb560028201612c2f565b604083015260038101546001600160a01b03166060830152600481018054611fdc81612bc3565b91611fea6040519384612b3e565b818352602083019060005260206000206000915b83831061213a57505050506080830152600581015460a083015260ff600682015416151560c0830152600781015460e083015260088101549161010081019283526120c56009830154926101208301938452600a81015492610140810193845261024060ff601281600b8601541615159485610160860152600c810154610180860152600d8101546101a0860152600e8101546101c0860152600f8101546101e0860152601081015461020086015260118101546102208601520154161515910152612d01565b82519060198202918083046019149015171561041e57835190600a820291808304600a149015171561041e5784519260328402938085046032149015171561041e5760648094819360c098519751905190604051988952602089015260408801520460608601520460808401520460a0820152f35b60016020819261214985612c2f565b815201920192019190611ffe565b346101c85760203660031901126101c8576004356000526001602052604060002060405161218481612b21565b8154815261219460018301612c2f565b60208201526121a560028301612c2f565b604082015260038201546001600160a01b031660608201526004820180546121cc81612bc3565b916121da6040519384612b3e565b818352602083019060005260206000206000915b83831061230857505050506080820152600582015460a082015260ff600683015416151560c0820152600782015460e082015260088201546101008201526009820154610120820152600a82015461014082015260ff600b8301541615159081610160820152600c830154916101808201928352600d8401546101a08301526122b9600e850154916101c08401928352600f8601546101e0850152601086015493610200810194855261024060ff601260118a01549961022085019a8b520154161515910152612d01565b8151815193605a850294808604605a149015171561041e57925191519451925160408051938452602084019690965294820192909252606081019390935260649091041115608082015260a090f35b60016020819261231785612c2f565b8152019201920191906121ee565b346101c85760003660031901126101c8576020600554604051908152f35b346101c85760403660031901126101c85761235c612ad9565b602435907f00000000000000000000000000000000000000000000000000000000000000006001600160a01b031633036123d8576001600160a01b03166000818152602081905260409020548210156123c75760005260006020526106426040600020918254612e3f565b600090815260208190526040812055005b60405162461bcd60e51b815260206004820152602660248201527f4f6e6c7920706c6174666f726d2063616e20646563726561736520637265646960448201526562696c69747960d01b6064820152608490fd5b346101c85761243a36612ac3565b90806000526001602052604060002061245960ff600b83015416612d01565b6003810180549093906001600160a01b031633036126c0576124816005830154421015612d43565b600682016001815461249660ff821615612d84565b6124a560048601548510612dc7565b60ff191617905580600783015582600052600260205260406000208160005260205260406000206040518082602082945493848152019060005260206000209260005b81811061269e5750506124fd92500382612b3e565b8051928315612639576008015490601982029582159683810460191488171561041e576064900492600a8102818104600a1489171561041e57606490049760328202918204603214171561041e57606490049661255a8689612e1f565b93806125f7575b50806125d2575b505060005b8481106125ae5750506000805160206130288339815191529394610e7891604051948594859094939260609260808301968352602083015260408201520152565b6001906125cc6000808080886001600160a01b03610e9b888b612f60565b0161256d565b6000808080936125f09560018060a01b039054165af1610ed4612e4c565b8680612568565b60008080806126339460018060a01b037f0000000000000000000000000000000000000000000000000000000000000000165af1610f1d612e4c565b88612561565b9050600891925093929301549060148202928284046014148315171561041e576000808080608096610fca9561268a83808080610f786000805160206130288339815191529f606490048098612e3f565b546001600160a01b03165af1610fc4612e4c565b84546001600160a01b03168352600194850194869450602090930192016124e8565b60405162461bcd60e51b815260206004820152601760248201527f4f6e6c792063726561746f722063616e20736574746c650000000000000000006044820152606490fd5b346101c85760203660031901126101c857600061024060405161272781612b21565b8281526060602082015260606040820152826060820152606060808201528260a08201528260c08201528260e08201528261010082015282610120820152826101408201528261016082015282610180820152826101a0820152826101c0820152826101e08201528261020082015282610220820152015260043560005260016020526040600020604051906127bc82612b21565b805482526127cc60018201612c2f565b60208301526127dd60028201612c2f565b604083015260038101546001600160a01b0316606083015260048101805461280481612bc3565b916128126040519384612b3e565b818352602083019060005260206000206000915b838310612a4b57505050506080830152600581015460a083015260ff600682015416151560c08301526128e960078201549160e0840192835260088101546101008501526009810154610120850152600a81015461014085015260ff601281600b8401541692831515610160880152600c810154610180880152600d8101546101a0880152600e8101546101c0880152600f8101546101e08801526010810154610200880152601181015461022088015201541615156102408501521515612d01565b60405190602082528251602083015261292c61291660208501516102606040860152610280850190612a82565b6040850151848203601f19016060860152612a82565b9060018060a01b036060850151166080840152608084015191601f198482030160a0850152825180825260208201916020808360051b8301019501926000915b838310612a1e578780886102408c8a60a082015160c086015260c0820151151560e08601525161010085015261010081015161012085015261012081015161014085015261014081015161016085015261016081015115156101808501526101808101516101a08501526101a08101516101c08501526101c08101516101e08501526101e081015161020085015261020081015161022085015261022081015182850152015115156102608301520390f35b9091929395602080612a3c600193601f198682030187528a51612a82565b9801930193019193929061296c565b600160208192612a5a85612c2f565b815201920192019190612826565b346101c85760003660031901126101c85780603260209252f35b919082519283825260005b848110612aae575050826000602080949584010152601f8019910116010190565b80602080928401015182828601015201612a8d565b60409060031901126101c8576004359060243590565b600435906001600160a01b03821682036101c857565b602435906001600160a01b03821682036101c857565b346101c85760003660031901126101c8576020604051600a8152f35b610260810190811067ffffffffffffffff82111761082757604052565b90601f8019910116810190811067ffffffffffffffff82111761082757604052565b67ffffffffffffffff811161082757601f01601f191660200190565b81601f820112156101c857803590612b9382612b60565b92612ba16040519485612b3e565b828452602083830101116101c857816000926020809301838601378301015290565b67ffffffffffffffff81116108275760051b60200190565b60609060031901126101c857600435906024359060443590565b90600182811c92168015612c25575b6020831014612c0f57565b634e487b7160e01b600052602260045260246000fd5b91607f1691612c04565b9060405191826000825492612c4384612bf5565b8084529360018116908115612cb15750600114612c6a575b50612c6892500383612b3e565b565b90506000929192526020600020906000915b818310612c95575050906020612c689282010138612c5b565b6020919350806001915483858901015201910190918492612c7c565b905060209250612c6894915060ff191682840152151560051b82010138612c5b565b8054821015612ceb5760005260206000200190600090565b634e487b7160e01b600052603260045260246000fd5b15612d0857565b60405162461bcd60e51b8152602060048201526013602482015272141bdb1b08191bd95cc81b9bdd08195e1a5cdd606a1b6044820152606490fd5b15612d4a57565b60405162461bcd60e51b8152602060048201526012602482015271141bdb1b081b9bdd081e595d08195b99195960721b6044820152606490fd5b15612d8b57565b60405162461bcd60e51b8152602060048201526014602482015273141bdb1b08185b1c9958591e481cd95d1d1b195960621b6044820152606490fd5b15612dce57565b60405162461bcd60e51b815260206004820152601660248201527524b73b30b634b2103bb4b73734b7339037b83a34b7b760511b6044820152606490fd5b8181029291811591840414171561041e57565b8115612e29570490565b634e487b7160e01b600052601260045260246000fd5b9190820391821161041e57565b3d15612e77573d90612e5d82612b60565b91612e6b6040519384612b3e565b82523d6000602084013e565b606090565b15612e8357565b60405162461bcd60e51b815260206004820152601c60248201527f506c6174666f726d20666565207472616e73666572206661696c6564000000006044820152606490fd5b15612ecf57565b60405162461bcd60e51b815260206004820152601e60248201527f43726561746f7220726566756e64207472616e73666572206661696c656400006044820152606490fd5b15612f1b57565b60405162461bcd60e51b815260206004820152601e60248201527f43726561746f7220726566696c6c207472616e73666572206661696c656400006044820152606490fd5b8051821015612ceb5760209160051b010190565b15612f7b57565b60405162461bcd60e51b815260206004820152601d60248201527f57696e6e657220726577617264207472616e73666572206661696c65640000006044820152606490fd5b9190820180921161041e57565b600019811461041e5760010190565b818110612fe7575050565b60008155600101612fdc565b918160021b918083046004149015171561041e5761301091612e1f565b6001018060011161041e5761302491612e0c565b9056feb1974b7808c93baad0e7d80b42cde19a0a7ade538d3ee1a0e7257bfe8151dc2fa2646970667358221220434f89c9fda10a7532a8e5491fff672f9ef1a4d667398fae4c002ffe7dc009de64736f6c634300081c0033",
  "linkReferences": {},
  "deployedLinkReferences": {}
}