{
  "_format": "hh-sol-artifact-1",
  "contractName": "SimplePoll",
  "sourceName": "contracts/SimplePoll.sol",
  "abi": [
    {
      "inputs": [],
      "stateMutability": "nonpayable",
      "type": "constructor"
    },
    {
      "anonymous": false,
      "inputs": [
        {
          "indexed": true,
          "internalType": "uint256",
          "name": "pollId",
          "type": "uint256"
        },
        {
          "indexed": true,
          "internalType": "address",
          "name": "creator",
          "type": "address"
        },
        {
          "indexed": false,
          "internalType": "uint256",
          "name": "amount",
          "type": "uint256"
        },
        {
          "indexed": false,
          "internalType": "uint256",
          "name": "newTotal",
          "type": "uint256"
        }
      ],
      "name": "CreatorDepositAdded",
      "type": "event"
    },
    {
      "anonymous": false,
      "inputs": [
        {
          "indexed": true,
          "internalType": "uint256",
          "name": "pollId",
          "type": "uint256"
        },
        {
          "indexed": true,
          "internalType": "address",
          "name": "creator",
          "type": "address"
        },
        {
          "indexed": false,
          "internalType": "string",
          "name": "title",
          "type": "string"
        },
        {
          "indexed": false,
          "internalType": "string[]",
          "name": "options",
          "type": "string[]"
        },
        {
          "indexed": false,
          "internalType": "uint256",
          "name": "endTime",
          "type": "uint256"
        },
        {
          "indexed": false,
          "internalType": "uint256",
          "name": "creatorDeposit",
          "type": "uint256"
        }
      ],
      "name": "PollCreated",
      "type": "event"
    },
    {
      "anonymous": false,
      "inputs": [
        {
          "indexed": true,
          "internalType": "uint256",
          "name": "pollId",
          "type": "uint256"
        },
        {
          "indexed": false,
          "internalType": "uint256",
          "name": "winningOption",
          "type": "uint256"
        },
        {
          "indexed": false,
          "internalType": "uint256",
          "name": "totalWinners",
          "type": "uint256"
        },
        {
          "indexed": false,
          "internalType": "uint256",
          "name": "rewardPerWinner",
          "type": "uint256"
        },
        {
          "indexed": false,
          "internalType": "uint256",
          "name": "totalRewardPool",
          "type": "uint256"
        }
      ],
      "name": "PollSettled",
      "type": "event"
    },
    {
      "anonymous": false,
      "inputs": [
        {
          "indexed": true,
          "internalType": "uint256",
          "name": "pollId",
          "type": "uint256"
        },
        {
          "indexed": true,
          "internalType": "address",
          "name": "voter",
          "type": "address"
        },
        {
          "indexed": false,
          "internalType": "uint256",
          "name": "optionId",
          "type": "uint256"
        },
        {
          "indexed": false,
          "internalType": "uint256",
          "name": "amount",
          "type": "uint256"
        }
      ],
      "name": "VoteCast",
      "type": "event"
    },
    {
      "inputs": [],
      "name": "CREATOR_FEE_PCT",
      "outputs": [
        {
          "internalType": "uint256",
          "name": "",
          "type": "uint256"
        }
      ],
      "stateMutability": "view",
      "type": "function"
    },
    {
      "inputs": [],
      "name": "ENTRY_FEE",
      "outputs": [
        {
          "internalType": "uint256",
          "name": "",
          "type": "uint256"
        }
      ],
      "stateMutability": "view",
      "type": "function"
    },
    {
      "inputs": [],
      "name": "MIN_CREATOR_DEPOSIT",
      "outputs": [
        {
          "internalType": "uint256",
          "name": "",
          "type": "uint256"
        }
      ],
      "stateMutability": "view",
      "type": "function"
    },
    {
      "inputs": [],
      "name": "PLATFORM_FEE_PCT",
      "outputs": [
        {
          "internalType": "uint256",
          "name": "",
          "type": "uint256"
        }
      ],
      "stateMutability": "view",
      "type": "function"
    },
    {
      "inputs": [],
      "name": "WINNER_POOL_PCT",
      "outputs": [
        {
          "internalType": "uint256",
          "name": "",
          "type": "uint256"
        }
      ],
      "stateMutability": "view",
      "type": "function"
    },
    {
      "inputs": [
        {
          "internalType": "uint256",
          "name": "_pollId",
          "type": "uint256"
        }
      ],
      "name": "addCreatorDeposit",
      "outputs": [],
      "stateMutability": "payable",
      "type": "function"
    },
    {
      "inputs": [
        {
          "internalType": "string",
          "name": "_title",
          "type": "string"
        },
        {
          "internalType": "string",
          "name": "_description",
          "type": "string"
        },
        {
          "internalType": "string[]",
          "name": "_options",
          "type": "string[]"
        },
        {
          "internalType": "uint256",
          "name": "_durationInHours",
          "type": "uint256"
        }
      ],
      "name": "createPoll",
      "outputs": [
        {
          "internalType": "uint256",
          "name": "",
          "type": "uint256"
        }
      ],
      "stateMutability": "payable",
      "type": "function"
    },
    {
      "inputs": [
        {
          "internalType": "uint256",
          "name": "_pollId",
          "type": "uint256"
        },
        {
          "internalType": "uint256",
          "name": "_winningOption",
          "type": "uint256"
        }
      ],
      "name": "emergencySettle",
      "outputs": [],
      "stateMutability": "nonpayable",
      "type": "function"
    },
    {
      "inputs": [
        {
          "internalType": "uint256",
          "name": "_pollId",
          "type": "uint256"
        }
      ],
      "name": "getPoll",
      "outputs": [
        {
          "internalType": "uint256",
          "name": "id",
          "type": "uint256"
        },
        {
          "internalType": "string",
          "name": "title",
          "type": "string"
        },
        {
          "internalType": "string",
          "name": "description",
          "type": "string"
        },
        {
          "internalType": "address",
          "name": "creator",
          "type": "address"
        },
        {
          "internalType": "string[]",
          "name": "options",
          "type": "string[]"
        },
        {
          "internalType": "uint256",
          "name": "endTime",
          "type": "uint256"
        },
        {
          "internalType": "bool",
          "name": "settled",
          "type": "bool"
        },
        {
          "internalType": "uint256",
          "name": "winningOption",
          "type": "uint256"
        },
        {
          "internalType": "uint256",
          "name": "totalPool",
          "type": "uint256"
        },
        {
          "internalType": "uint256",
          "name": "creatorDeposit",
          "type": "uint256"
        },
        {
          "internalType": "uint256",
          "name": "voterPool",
          "type": "uint256"
        }
      ],
      "stateMutability": "view",
      "type": "function"
    },
    {
      "inputs": [
        {
          "internalType": "uint256",
          "name": "_pollId",
          "type": "uint256"
        }
      ],
      "name": "getPollRewardBreakdown",
      "outputs": [
        {
          "internalType": "uint256",
          "name": "totalPool",
          "type": "uint256"
        },
        {
          "internalType": "uint256",
          "name": "creatorDeposit",
          "type": "uint256"
        },
        {
          "internalType": "uint256",
          "name": "voterPool",
          "type": "uint256"
        },
        {
          "internalType": "uint256",
          "name": "projectedWinnerPool",
          "type": "uint256"
        },
        {
          "internalType": "uint256",
          "name": "projectedPlatformFee",
          "type": "uint256"
        },
        {
          "internalType": "uint256",
          "name": "projectedCreatorFee",
          "type": "uint256"
        }
      ],
      "stateMutability": "view",
      "type": "function"
    },
    {
      "inputs": [
        {
          "internalType": "uint256",
          "name": "_pollId",
          "type": "uint256"
        }
      ],
      "name": "getTotalVoters",
      "outputs": [
        {
          "internalType": "uint256",
          "name": "",
          "type": "uint256"
        }
      ],
      "stateMutability": "view",
      "type": "function"
    },
    {
      "inputs": [
        {
          "internalType": "uint256",
          "name": "_pollId",
          "type": "uint256"
        },
        {
          "internalType": "uint256",
          "name": "_optionId",
          "type": "uint256"
        }
      ],
      "name": "getVoterCount",
      "outputs": [
        {
          "internalType": "uint256",
          "name": "",
          "type": "uint256"
        }
      ],
      "stateMutability": "view",
      "type": "function"
    },
    {
      "inputs": [
        {
          "internalType": "uint256",
          "name": "_pollId",
          "type": "uint256"
        },
        {
          "internalType": "uint256",
          "name": "_optionId",
          "type": "uint256"
        }
      ],
      "name": "getVotersForOption",
      "outputs": [
        {
          "internalType": "address[]",
          "name": "",
          "type": "address[]"
        }
      ],
      "stateMutability": "view",
      "type": "function"
    },
    {
      "inputs": [
        {
          "internalType": "uint256",
          "name": "",
          "type": "uint256"
        },
        {
          "internalType": "address",
          "name": "",
          "type": "address"
        }
      ],
      "name": "hasVoted",
      "outputs": [
        {
          "internalType": "bool",
          "name": "",
          "type": "bool"
        }
      ],
      "stateMutability": "view",
      "type": "function"
    },
    {
      "inputs": [],
      "name": "nextPollId",
      "outputs": [
        {
          "internalType": "uint256",
          "name": "",
          "type": "uint256"
        }
      ],
      "stateMutability": "view",
      "type": "function"
    },
    {
      "inputs": [],
      "name": "platform",
      "outputs": [
        {
          "internalType": "address",
          "name": "",
          "type": "address"
        }
      ],
      "stateMutability": "view",
      "type": "function"
    },
    {
      "inputs": [
        {
          "internalType": "uint256",
          "name": "",
          "type": "uint256"
        },
        {
          "internalType": "uint256",
          "name": "",
          "type": "uint256"
        },
        {
          "internalType": "uint256",
          "name": "",
          "type": "uint256"
        }
      ],
      "name": "pollVoters",
      "outputs": [
        {
          "internalType": "address",
          "name": "",
          "type": "address"
        }
      ],
      "stateMutability": "view",
      "type": "function"
    },
    {
      "inputs": [
        {
          "internalType": "uint256",
          "name": "",
          "type": "uint256"
        }
      ],
      "name": "polls",
      "outputs": [
        {
          "internalType": "uint256",
          "name": "id",
          "type": "uint256"
        },
        {
          "internalType": "string",
          "name": "title",
          "type": "string"
        },
        {
          "internalType": "string",
          "name": "description",
          "type": "string"
        },
        {
          "internalType": "address",
          "name": "creator",
          "type": "address"
        },
        {
          "internalType": "uint256",
          "name": "endTime",
          "type": "uint256"
        },
        {
          "internalType": "bool",
          "name": "settled",
          "type": "bool"
        },
        {
          "internalType": "uint256",
          "name": "winningOption",
          "type": "uint256"
        },
        {
          "internalType": "uint256",
          "name": "totalPool",
          "type": "uint256"
        },
        {
          "internalType": "uint256",
          "name": "creatorDeposit",
          "type": "uint256"
        },
        {
          "internalType": "uint256",
          "name": "voterPool",
          "type": "uint256"
        },
        {
          "internalType": "bool",
          "name": "exists",
          "type": "bool"
        }
      ],
      "stateMutability": "view",
      "type": "function"
    },
    {
      "inputs": [
        {
          "internalType": "uint256",
          "name": "_pollId",
          "type": "uint256"
        },
        {
          "internalType": "uint256",
          "name": "_winningOption",
          "type": "uint256"
        }
      ],
      "name": "settlePoll",
      "outputs": [],
      "stateMutability": "nonpayable",
      "type": "function"
    },
    {
      "inputs": [
        {
          "internalType": "uint256",
          "name": "",
          "type": "uint256"
        },
        {
          "internalType": "address",
          "name": "",
          "type": "address"
        }
      ],
      "name": "userVotes",
      "outputs": [
        {
          "internalType": "uint256",
          "name": "",
          "type": "uint256"
        }
      ],
      "stateMutability": "view",
      "type": "function"
    },
    {
      "inputs": [
        {
          "internalType": "uint256",
          "name": "_pollId",
          "type": "uint256"
        },
        {
          "internalType": "uint256",
          "name": "_optionId",
          "type": "uint256"
        }
      ],
      "name": "vote",
      "outputs": [],
      "stateMutability": "payable",
      "type": "function"
    }
  ],
  "bytecode": "0x60a06040526001600455348015601457600080fd5b50336080526080516127e5610050600039600081816102b4015281816109e301528181610c7e015281816111fc015261148501526127e56000f3fe60806040526004361061012a5760003560e01c806365802da3116100ab578063ad0f04a91161006f578063ad0f04a91461039d578063b384abef146103b0578063bae6f93a146103c3578063c3b62159146103f0578063f6d361cc14610410578063fe5b3e3b1461042b57600080fd5b806365802da31461030e5780636ee0675a14610323578063804148a314610336578063a85fd2c01461034b578063ac2f00741461036657600080fd5b8063427530c2116100f2578063427530c214610217578063438596321461023757806343d3a4c1146102825780634bde38c8146102a2578063597798cd146102ee57600080fd5b80631a8cbcaa1461012f57806321a1759e1461016f5780632b7865711461019157806339095ea4146101b557806341942c0d14610202575b600080fd5b34801561013b57600080fd5b5061014f61014a36600461207d565b610463565b6040516101669b9a99989796959493929190612138565b60405180910390f35b34801561017b57600080fd5b5061018f61018a3660046121c1565b61078e565b005b34801561019d57600080fd5b506101a760045481565b604051908152602001610166565b3480156101c157600080fd5b506101d56101d036600461207d565b610e08565b604080519687526020870195909552938501929092526060840152608083015260a082015260c001610166565b34801561020e57600080fd5b506101a7600581565b34801561022357600080fd5b506101a76102323660046121c1565b61114d565b34801561024357600080fd5b506102726102523660046121e3565b600260209081526000928352604080842090915290825290205460ff1681565b6040519015158152602001610166565b34801561028e57600080fd5b506101a761029d36600461207d565b61116e565b3480156102ae57600080fd5b506102d67f000000000000000000000000000000000000000000000000000000000000000081565b6040516001600160a01b039091168152602001610166565b3480156102fa57600080fd5b5061018f6103093660046121c1565b6111f1565b34801561031a57600080fd5b506101a7605581565b61018f61033136600461207d565b611693565b34801561034257600080fd5b506101a7600a81565b34801561035757600080fd5b506101a766071afd498d000081565b34801561037257600080fd5b5061038661038136600461207d565b61183a565b6040516101669b9a9998979695949392919061221f565b6101a76103ab366004612352565b6119b2565b61018f6103be3660046121c1565b611c87565b3480156103cf57600080fd5b506103e36103de3660046121c1565b611efe565b6040516101669190612483565b3480156103fc57600080fd5b506102d661040b3660046124cf565b611f73565b34801561041c57600080fd5b506101a766038d7ea4c6800081565b34801561043757600080fd5b506101a76104463660046121e3565b600360209081526000928352604080842090915290825290205481565b60006060806000606060008060008060008060008060008e815260200190815260200160002060405180610180016040529081600082015481526020016001820180546104af906124fb565b80601f01602080910402602001604051908101604052809291908181526020018280546104db906124fb565b80156105285780601f106104fd57610100808354040283529160200191610528565b820191906000526020600020905b81548152906001019060200180831161050b57829003601f168201915b50505050508152602001600282018054610541906124fb565b80601f016020809104026020016040519081016040528092919081815260200182805461056d906124fb565b80156105ba5780601f1061058f576101008083540402835291602001916105ba565b820191906000526020600020905b81548152906001019060200180831161059d57829003601f168201915b505050918352505060038201546001600160a01b0316602080830191909152600483018054604080518285028101850182528281529401939260009084015b828210156106a5578382906000526020600020018054610618906124fb565b80601f0160208091040260200160405190810160405280929190818152602001828054610644906124fb565b80156106915780601f1061066657610100808354040283529160200191610691565b820191906000526020600020905b81548152906001019060200180831161067457829003601f168201915b5050505050815260200190600101906105f9565b5050509082525060058201546020820152600682015460ff908116151560408301526007830154606083015260088301546080830152600983015460a0830152600a83015460c0830152600b90920154909116151560e09091015261016081015190915061072e5760405162461bcd60e51b815260040161072590612535565b60405180910390fd5b806000015181602001518260400151836060015184608001518560a001518660c001518760e001518861010001518961012001518a61014001519b509b509b509b509b509b509b509b509b509b509b505091939597999b90929496989a50565b6000828152602081905260409020600b81015460ff166107c05760405162461bcd60e51b815260040161072590612535565b60038101546001600160a01b0316331461081c5760405162461bcd60e51b815260206004820152601760248201527f4f6e6c792063726561746f722063616e20736574746c650000000000000000006044820152606401610725565b80600501544210156108655760405162461bcd60e51b8152602060048201526012602482015271141bdb1b081b9bdd081e595d08195b99195960721b6044820152606401610725565b600681015460ff161561088a5760405162461bcd60e51b815260040161072590612562565b600481015482106108d65760405162461bcd60e51b815260206004820152601660248201527524b73b30b634b2103bb4b73734b7339037b83a34b7b760511b6044820152606401610725565b60068101805460ff19166001908117909155600782018390556000848152602091825260408082208583528352808220805482518186028101860190935280835292939192909183018282801561095657602002820191906000526020600020905b81546001600160a01b03168152600190910190602001808311610938575b505083519394505082159150610c4590505760006064600a856008015461097d91906125a6565b61098791906125bd565b9050600060646005866008015461099e91906125a6565b6109a891906125bd565b905060006064605587600801546109bf91906125a6565b6109c991906125bd565b905060006109d785836125bd565b90508315610a745760007f00000000000000000000000000000000000000000000000000000000000000006001600160a01b03168560405160006040518083038185875af1925050503d8060008114610a4c576040519150601f19603f3d011682016040523d82523d6000602084013e610a51565b606091505b5050905080610a725760405162461bcd60e51b8152600401610725906125df565b505b8215610b215760038701546040516000916001600160a01b03169085908381818185875af1925050503d8060008114610ac9576040519150601f19603f3d011682016040523d82523d6000602084013e610ace565b606091505b5050905080610b1f5760405162461bcd60e51b815260206004820152601b60248201527f43726561746f7220666565207472616e73666572206661696c656400000000006044820152606401610725565b505b60005b85811015610bf1576000878281518110610b4057610b40612616565b60200260200101516001600160a01b03168360405160006040518083038185875af1925050503d8060008114610b92576040519150601f19603f3d011682016040523d82523d6000602084013e610b97565b606091505b5050905080610be85760405162461bcd60e51b815260206004820152601d60248201527f57696e6e657220726577617264207472616e73666572206661696c65640000006044820152606401610725565b50600101610b24565b5060408051898152602081018790529081018290526060810183905289907fb1974b7808c93baad0e7d80b42cde19a0a7ade538d3ee1a0e7257bfe8151dc2f9060800160405180910390a250505050610e01565b6000606484600801546014610c5a91906125a6565b610c6491906125bd565b90506000818560080154610c78919061262c565b905060007f00000000000000000000000000000000000000000000000000000000000000006001600160a01b03168360405160006040518083038185875af1925050503d8060008114610ce7576040519150601f19603f3d011682016040523d82523d6000602084013e610cec565b606091505b5050905080610d0d5760405162461bcd60e51b8152600401610725906125df565b60038601546040516000916001600160a01b03169084908381818185875af1925050503d8060008114610d5c576040519150601f19603f3d011682016040523d82523d6000602084013e610d61565b606091505b5050905080610db25760405162461bcd60e51b815260206004820152601e60248201527f43726561746f7220726566756e64207472616e73666572206661696c656400006044820152606401610725565b60408051898152600060208201819052818301819052606082015290518a917fb1974b7808c93baad0e7d80b42cde19a0a7ade538d3ee1a0e7257bfe8151dc2f919081900360800190a2505050505b5050505050565b60008060008060008060008060008981526020019081526020016000206040518061018001604052908160008201548152602001600182018054610e4b906124fb565b80601f0160208091040260200160405190810160405280929190818152602001828054610e77906124fb565b8015610ec45780601f10610e9957610100808354040283529160200191610ec4565b820191906000526020600020905b815481529060010190602001808311610ea757829003601f168201915b50505050508152602001600282018054610edd906124fb565b80601f0160208091040260200160405190810160405280929190818152602001828054610f09906124fb565b8015610f565780601f10610f2b57610100808354040283529160200191610f56565b820191906000526020600020905b815481529060010190602001808311610f3957829003601f168201915b505050918352505060038201546001600160a01b0316602080830191909152600483018054604080518285028101850182528281529401939260009084015b82821015611041578382906000526020600020018054610fb4906124fb565b80601f0160208091040260200160405190810160405280929190818152602001828054610fe0906124fb565b801561102d5780601f106110025761010080835404028352916020019161102d565b820191906000526020600020905b81548152906001019060200180831161101057829003601f168201915b505050505081526020019060010190610f95565b5050509082525060058201546020820152600682015460ff908116151560408301526007830154606083015260088301546080830152600983015460a0830152600a83015460c0830152600b90920154909116151560e0909101526101608101519091506110c15760405162461bcd60e51b815260040161072590612535565b60006064600a8361010001516110d791906125a6565b6110e191906125bd565b90506000606460058461010001516110f991906125a6565b61110391906125bd565b905060006064605585610100015161111b91906125a6565b61112591906125bd565b61010085015161012086015161014090960151909d959c509a50985091965094509092505050565b60008281526001602090815260408083208484529091529020545b92915050565b6000818152602081905260408120600b015460ff1661119f5760405162461bcd60e51b815260040161072590612535565b6000805b6000848152602081905260409020600401548110156111ea5760008481526001602090815260408083208484529091529020546111e0908361263f565b91506001016111a3565b5092915050565b336001600160a01b037f000000000000000000000000000000000000000000000000000000000000000016146112745760405162461bcd60e51b815260206004820152602260248201527f4f6e6c7920706c6174666f726d2063616e20656d657267656e637920736574746044820152616c6560f01b6064820152608401610725565b6000828152602081905260409020600b81015460ff166112a65760405162461bcd60e51b815260040161072590612535565b60058101546112b8906201518061263f565b4210156113075760405162461bcd60e51b815260206004820152601c60248201527f4d75737420776169742032346820616674657220706f6c6c20656e64000000006044820152606401610725565b600681015460ff161561132c5760405162461bcd60e51b815260040161072590612562565b600481015482106113785760405162461bcd60e51b815260206004820152601660248201527524b73b30b634b2103bb4b73734b7339037b83a34b7b760511b6044820152606401610725565b60068101805460ff1916600190811790915560078201839055600084815260209182526040808220858352835280822080548251818602810186019093528083529293919290918301828280156113f857602002820191906000526020600020905b81546001600160a01b031681526001909101906020018083116113da575b505083519394505082159150610c4590505760006064600a856008015461141f91906125a6565b61142991906125bd565b9050600060646005866008015461144091906125a6565b61144a91906125bd565b9050600060646055876008015461146191906125a6565b61146b91906125bd565b9050600061147985836125bd565b905083156115165760007f00000000000000000000000000000000000000000000000000000000000000006001600160a01b03168560405160006040518083038185875af1925050503d80600081146114ee576040519150601f19603f3d011682016040523d82523d6000602084013e6114f3565b606091505b50509050806115145760405162461bcd60e51b8152600401610725906125df565b505b82156115c35760038701546040516000916001600160a01b03169085908381818185875af1925050503d806000811461156b576040519150601f19603f3d011682016040523d82523d6000602084013e611570565b606091505b50509050806115c15760405162461bcd60e51b815260206004820152601b60248201527f43726561746f7220666565207472616e73666572206661696c656400000000006044820152606401610725565b505b60005b85811015610bf15760008782815181106115e2576115e2612616565b60200260200101516001600160a01b03168360405160006040518083038185875af1925050503d8060008114611634576040519150601f19603f3d011682016040523d82523d6000602084013e611639565b606091505b505090508061168a5760405162461bcd60e51b815260206004820152601d60248201527f57696e6e657220726577617264207472616e73666572206661696c65640000006044820152606401610725565b506001016115c6565b6000818152602081905260409020600b015460ff166116c45760405162461bcd60e51b815260040161072590612535565b6000818152602081905260409020600301546001600160a01b0316331461172d5760405162461bcd60e51b815260206004820152601c60248201527f4f6e6c792063726561746f722063616e20616464206465706f736974000000006044820152606401610725565b60008181526020819052604090206006015460ff161561175f5760405162461bcd60e51b815260040161072590612562565b6000341161179f5760405162461bcd60e51b815260206004820152600d60248201526c26bab9ba1039b2b7321021272160991b6044820152606401610725565b600081815260208190526040812060090180543492906117c090849061263f565b9091555050600081815260208190526040812060080180543492906117e690849061263f565b90915550506000818152602081815260409182902060090154825134815291820152339183917f0e7b239a92071c8c6f18b80fd053bca268bc99217d7a25c28cfed0b2ffed7705910160405180910390a350565b6000602081905290815260409020805460018201805491929161185c906124fb565b80601f0160208091040260200160405190810160405280929190818152602001828054611888906124fb565b80156118d55780601f106118aa576101008083540402835291602001916118d5565b820191906000526020600020905b8154815290600101906020018083116118b857829003601f168201915b5050505050908060020180546118ea906124fb565b80601f0160208091040260200160405190810160405280929190818152602001828054611916906124fb565b80156119635780601f1061193857610100808354040283529160200191611963565b820191906000526020600020905b81548152906001019060200180831161194657829003601f168201915b50505050600383015460058401546006850154600786015460088701546009880154600a890154600b9099015497986001600160a01b039096169794965060ff9384169592949193909291168b565b600060028351101580156119c857506005835111155b611a0b5760405162461bcd60e51b81526020600482015260146024820152730c8b4d481bdc1d1a5bdb9cc81c995c5d5a5c995960621b6044820152606401610725565b600082118015611a1d57506102d08211155b611a745760405162461bcd60e51b815260206004820152602260248201527f4475726174696f6e206d757374206265203120686f757220746f203330206461604482015261797360f01b6064820152608401610725565b66071afd498d0000341015611acb5760405162461bcd60e51b815260206004820152601760248201527f43726561746f72206465706f73697420746f6f206c6f770000000000000000006044820152606401610725565b6004805460009182611adc83612652565b9091555090506000611af084610e106125a6565b611afa904261263f565b604080516101808101825284815260208082018b81528284018b9052336060840152608083018a905260a08301859052600060c0840181905260e084018190523461010085018190526101208501526101408401819052600161016085018190528882529281905293909320825181559251939450909290820190611b7f90826126b7565b5060408201516002820190611b9490826126b7565b5060608201516003820180546001600160a01b0319166001600160a01b0390921691909117905560808201518051611bd6916004840191602090910190611fb8565b5060a0820151600582015560c082015160068201805491151560ff1992831617905560e0830151600783015561010083015160088301556101208301516009830155610140830151600a83015561016090920151600b909101805491151591909216179055604051339083907ff430a5d69e2a8bf7e182935f788c8eebcba079a3de38be32477b82ca394eb73090611c75908b908a9087903490612776565b60405180910390a35095945050505050565b66038d7ea4c680003414611cdd5760405162461bcd60e51b815260206004820152601b60248201527f4d7573742073656e642065786163746c7920302e30303120424e4200000000006044820152606401610725565b6000828152602081905260409020600b015460ff16611d0e5760405162461bcd60e51b815260040161072590612535565b6000828152602081905260409020600501544210611d5f5760405162461bcd60e51b815260206004820152600e60248201526d141bdb1b081a185cc8195b99195960921b6044820152606401610725565b600082815260026020908152604080832033845290915290205460ff1615611db95760405162461bcd60e51b815260206004820152600d60248201526c105b1c9958591e481d9bdd1959609a1b6044820152606401610725565b6000828152602081905260409020600401548110611e0a5760405162461bcd60e51b815260206004820152600e60248201526d24b73b30b634b21037b83a34b7b760911b6044820152606401610725565b600082815260026020908152604080832033808552908352818420805460ff1916600190811790915586855260038452828520828652845282852086905586855280845282852086865284528285208054918201815585528385200180546001600160a01b03191690911790558483529082905281206008018054349290611e9390849061263f565b90915550506000828152602081905260408120600a018054349290611eb990849061263f565b909155505060408051828152346020820152339184917f0271f53eebbe20450d9578f28ec279231556c34545b30e2278d754ffd39cd63c910160405180910390a35050565b6000828152600160209081526040808320848452825291829020805483518184028101840190945280845260609392830182828015611f6657602002820191906000526020600020905b81546001600160a01b03168152600190910190602001808311611f48575b5050505050905092915050565b60016020528260005260406000206020528160005260406000208181548110611f9b57600080fd5b6000918252602090912001546001600160a01b0316925083915050565b828054828255906000526020600020908101928215611ffe579160200282015b82811115611ffe5782518290611fee90826126b7565b5091602001919060010190611fd8565b5061200a92915061200e565b5090565b8082111561200a576000612022828261202b565b5060010161200e565b508054612037906124fb565b6000825580601f10612047575050565b601f0160209004906000526020600020908101906120659190612068565b50565b5b8082111561200a5760008155600101612069565b60006020828403121561208f57600080fd5b5035919050565b6000815180845260005b818110156120bc576020818501810151868301820152016120a0565b506000602082860101526020601f19601f83011685010191505092915050565b600082825180855260208501945060208160051b8301016020850160005b8381101561212c57601f19858403018852612116838351612096565b60209889019890935091909101906001016120fa565b50909695505050505050565b8b81526101606020820152600061215361016083018d612096565b8281036040840152612165818d612096565b6001600160a01b038c16606085015283810360808501529050612188818b6120dc565b60a0840199909952505094151560c086015260e08501939093526101008401919091526101208301526101409091015295945050505050565b600080604083850312156121d457600080fd5b50508035926020909101359150565b600080604083850312156121f657600080fd5b8235915060208301356001600160a01b038116811461221457600080fd5b809150509250929050565b8b81526101606020820152600061223a61016083018d612096565b828103604084015261224c818d612096565b6001600160a01b039b909b1660608401525050608081019790975294151560a087015260c086019390935260e08501919091526101008401526101208301521515610140909101529392505050565b634e487b7160e01b600052604160045260246000fd5b604051601f8201601f1916810167ffffffffffffffff811182821017156122da576122da61229b565b604052919050565b600082601f8301126122f357600080fd5b813567ffffffffffffffff81111561230d5761230d61229b565b612320601f8201601f19166020016122b1565b81815284602083860101111561233557600080fd5b816020850160208301376000918101602001919091529392505050565b6000806000806080858703121561236857600080fd5b843567ffffffffffffffff81111561237f57600080fd5b61238b878288016122e2565b945050602085013567ffffffffffffffff8111156123a857600080fd5b6123b4878288016122e2565b935050604085013567ffffffffffffffff8111156123d157600080fd5b8501601f810187136123e257600080fd5b803567ffffffffffffffff8111156123fc576123fc61229b565b8060051b61240c602082016122b1565b9182526020818401810192908101908a84111561242857600080fd5b6020850192505b8383101561246f57823567ffffffffffffffff81111561244e57600080fd5b61245d8c6020838901016122e2565b8352506020928301929091019061242f565b979a96995096976060013596505050505050565b602080825282518282018190526000918401906040840190835b818110156124c45783516001600160a01b031683526020938401939092019160010161249d565b509095945050505050565b6000806000606084860312156124e457600080fd5b505081359360208301359350604090920135919050565b600181811c9082168061250f57607f821691505b60208210810361252f57634e487b7160e01b600052602260045260246000fd5b50919050565b602080825260139082015272141bdb1b08191bd95cc81b9bdd08195e1a5cdd606a1b604082015260600190565b602080825260149082015273141bdb1b08185b1c9958591e481cd95d1d1b195960621b604082015260600190565b634e487b7160e01b600052601160045260246000fd5b808202811582820484141761116857611168612590565b6000826125da57634e487b7160e01b600052601260045260246000fd5b500490565b6020808252601c908201527f506c6174666f726d20666565207472616e73666572206661696c656400000000604082015260600190565b634e487b7160e01b600052603260045260246000fd5b8181038181111561116857611168612590565b8082018082111561116857611168612590565b60006001820161266457612664612590565b5060010190565b601f8211156126b257806000526020600020601f840160051c810160208510156126925750805b601f840160051c820191505b81811015610e01576000815560010161269e565b505050565b815167ffffffffffffffff8111156126d1576126d161229b565b6126e5816126df84546124fb565b8461266b565b6020601f82116001811461271957600083156127015750848201515b600019600385901b1c1916600184901b178455610e01565b600084815260208120601f198516915b828110156127495787850151825560209485019460019092019101612729565b50848210156127675786840151600019600387901b60f8161c191681555b50505050600190811b01905550565b6080815260006127896080830187612096565b828103602084015261279b81876120dc565b60408401959095525050606001529291505056fea2646970667358221220a1c65ee3e357fb13ad053b31e9613be21ace66449c02eba3966a9ce4b85ae97164736f6c634300081c0033",
  "linkReferences": {},
  "deployedLinkReferences": {}
}